{
  "abi": [
    {
      "inputs": [],
      "stateMutability": "nonpayable",
      "type": "constructor"
    },
    {
      "anonymous": false,
      "inputs": [
        {
          "indexed": true,
          "internalType": "address",
          "name": "owner",
          "type": "address"
        },
        {
          "indexed": true,
          "internalType": "address",
          "name": "approved",
          "type": "address"
        },
        {
          "indexed": true,
          "internalType": "uint256",
          "name": "tokenId",
          "type": "uint256"
        }
      ],
      "name": "Approval",
      "type": "event"
    },
    {
      "anonymous": false,
      "inputs": [
        {
          "indexed": true,
          "internalType": "address",
          "name": "owner",
          "type": "address"
        },
        {
          "indexed": true,
          "internalType": "address",
          "name": "operator",
          "type": "address"
        },
        {
          "indexed": false,
          "internalType": "bool",
          "name": "approved",
          "type": "bool"
        }
      ],
      "name": "ApprovalForAll",
      "type": "event"
    },
    {
      "anonymous": false,
      "inputs": [
        {
          "indexed": true,
          "internalType": "address",
          "name": "from",
          "type": "address"
        },
        {
          "indexed": true,
          "internalType": "address",
          "name": "to",
          "type": "address"
        },
        {
          "indexed": true,
          "internalType": "uint256",
          "name": "tokenId",
          "type": "uint256"
        }
      ],
      "name": "Transfer",
      "type": "event"
    },
    {
      "inputs": [
        {
          "internalType": "address",
          "name": "to",
          "type": "address"
        },
        {
          "internalType": "uint256",
          "name": "tokenId",
          "type": "uint256"
        }
      ],
      "name": "approve",
      "outputs": [],
      "stateMutability": "nonpayable",
      "type": "function"
    },
    {
      "inputs": [
        {
          "internalType": "address",
          "name": "owner",
          "type": "address"
        }
      ],
      "name": "balanceOf",
      "outputs": [
        {
          "internalType": "uint256",
          "name": "",
          "type": "uint256"
        }
      ],
      "stateMutability": "view",
      "type": "function"
    },
    {
      "inputs": [],
      "name": "baseURI",
      "outputs": [
        {
          "internalType": "string",
          "name": "",
          "type": "string"
        }
      ],
      "stateMutability": "view",
      "type": "function"
    },
    {
      "inputs": [
        {
          "internalType": "uint256",
          "name": "tokenId",
          "type": "uint256"
        }
      ],
      "name": "exists",
      "outputs": [
        {
          "internalType": "bool",
          "name": "",
          "type": "bool"
        }
      ],
      "stateMutability": "view",
      "type": "function"
    },
    {
      "inputs": [
        {
          "internalType": "uint256",
          "name": "tokenId",
          "type": "uint256"
        }
      ],
      "name": "getApproved",
      "outputs": [
        {
          "internalType": "address",
          "name": "",
          "type": "address"
        }
      ],
      "stateMutability": "view",
      "type": "function"
    },
    {
      "inputs": [
        {
          "internalType": "address",
          "name": "owner",
          "type": "address"
        },
        {
          "internalType": "address",
          "name": "operator",
          "type": "address"
        }
      ],
      "name": "isApprovedForAll",
      "outputs": [
        {
          "internalType": "bool",
          "name": "",
          "type": "bool"
        }
      ],
      "stateMutability": "view",
      "type": "function"
    },
    {
      "inputs": [
        {
          "internalType": "uint256",
          "name": "_mintAmount",
          "type": "uint256"
        }
      ],
      "name": "mint",
      "outputs": [],
      "stateMutability": "payable",
      "type": "function"
    },
    {
      "inputs": [],
      "name": "name",
      "outputs": [
        {
          "internalType": "string",
          "name": "",
          "type": "string"
        }
      ],
      "stateMutability": "view",
      "type": "function"
    },
    {
      "inputs": [
        {
          "internalType": "uint256",
          "name": "tokenId",
          "type": "uint256"
        }
      ],
      "name": "ownerOf",
      "outputs": [
        {
          "internalType": "address",
          "name": "",
          "type": "address"
        }
      ],
      "stateMutability": "view",
      "type": "function"
    },
    {
      "inputs": [
        {
          "internalType": "address",
          "name": "from",
          "type": "address"
        },
        {
          "internalType": "address",
          "name": "to",
          "type": "address"
        },
        {
          "internalType": "uint256",
          "name": "tokenId",
          "type": "uint256"
        }
      ],
      "name": "safeTransferFrom",
      "outputs": [],
      "stateMutability": "nonpayable",
      "type": "function"
    },
    {
      "inputs": [
        {
          "internalType": "address",
          "name": "from",
          "type": "address"
        },
        {
          "internalType": "address",
          "name": "to",
          "type": "address"
        },
        {
          "internalType": "uint256",
          "name": "tokenId",
          "type": "uint256"
        },
        {
          "internalType": "bytes",
          "name": "_data",
          "type": "bytes"
        }
      ],
      "name": "safeTransferFrom",
      "outputs": [],
      "stateMutability": "nonpayable",
      "type": "function"
    },
    {
      "inputs": [
        {
          "internalType": "address",
          "name": "operator",
          "type": "address"
        },
        {
          "internalType": "bool",
          "name": "approved",
          "type": "bool"
        }
      ],
      "name": "setApprovalForAll",
      "outputs": [],
      "stateMutability": "nonpayable",
      "type": "function"
    },
    {
      "inputs": [
        {
          "internalType": "bytes4",
          "name": "interfaceId",
          "type": "bytes4"
        }
      ],
      "name": "supportsInterface",
      "outputs": [
        {
          "internalType": "bool",
          "name": "",
          "type": "bool"
        }
      ],
      "stateMutability": "view",
      "type": "function"
    },
    {
      "inputs": [],
      "name": "symbol",
      "outputs": [
        {
          "internalType": "string",
          "name": "",
          "type": "string"
        }
      ],
      "stateMutability": "view",
      "type": "function"
    },
    {
      "inputs": [
        {
          "internalType": "uint256",
          "name": "tokenId",
          "type": "uint256"
        }
      ],
      "name": "tokenURI",
      "outputs": [
        {
          "internalType": "string",
          "name": "",
          "type": "string"
        }
      ],
      "stateMutability": "view",
      "type": "function"
    },
    {
      "inputs": [],
      "name": "totalSupply",
      "outputs": [
        {
          "internalType": "uint256",
          "name": "",
          "type": "uint256"
        }
      ],
      "stateMutability": "view",
      "type": "function"
    },
    {
      "inputs": [
        {
          "internalType": "address",
          "name": "from",
          "type": "address"
        },
        {
          "internalType": "address",
          "name": "to",
          "type": "address"
        },
        {
          "internalType": "uint256",
          "name": "tokenId",
          "type": "uint256"
        }
      ],
      "name": "transferFrom",
      "outputs": [],
      "stateMutability": "nonpayable",
      "type": "function"
    },
    {
      "inputs": [],
      "name": "withdrawFund",
      "outputs": [],
      "stateMutability": "nonpayable",
      "type": "function"
    }
  ],
  "bytecode": {
    "object": "0x61010060405260596080818152906200190860a03960069062000023908262000134565b5060016007553480156200003657600080fd5b506040805180820182526008808252674449414d4f4e445360c01b602080840182905284518086019095529184529083015290600062000077838262000134565b50600162000086828262000134565b50505062000200565b634e487b7160e01b600052604160045260246000fd5b600181811c90821680620000ba57607f821691505b602082108103620000db57634e487b7160e01b600052602260045260246000fd5b50919050565b601f8211156200012f57600081815260208120601f850160051c810160208610156200010a5750805b601f850160051c820191505b818110156200012b5782815560010162000116565b5050505b505050565b81516001600160401b038111156200015057620001506200008f565b6200016881620001618454620000a5565b84620000e1565b602080601f831160018114620001a05760008415620001875750858301515b600019600386901b1c1916600185901b1785556200012b565b600085815260208120601f198616915b82811015620001d157888601518255948401946001909101908401620001b0565b5085821015620001f05787850151600019600388901b60f8161c191681555b5050505050600190811b01905550565b6116f880620002106000396000f3fe6080604052600436106101095760003560e01c80636c0360eb11610095578063a22cb46511610064578063a22cb465146102bb578063b88d4fde146102db578063c87b56dd146102fb578063e07fa3c11461031b578063e985e9c51461033057600080fd5b80636c0360eb1461025e57806370a082311461027357806395d89b4114610293578063a0712d68146102a857600080fd5b806318160ddd116100dc57806318160ddd146101bf57806323b872dd146101de57806342842e0e146101fe5780634f558e791461021e5780636352211e1461023e57600080fd5b806301ffc9a71461010e57806306fdde0314610143578063081812fc14610165578063095ea7b31461019d575b600080fd5b34801561011a57600080fd5b5061012e61012936600461116a565b610350565b60405190151581526020015b60405180910390f35b34801561014f57600080fd5b506101586103a2565b60405161013a91906111de565b34801561017157600080fd5b506101856101803660046111f1565b610434565b6040516001600160a01b03909116815260200161013a565b3480156101a957600080fd5b506101bd6101b8366004611226565b6104ce565b005b3480156101cb57600080fd5b506007545b60405190815260200161013a565b3480156101ea57600080fd5b506101bd6101f9366004611250565b6105e3565b34801561020a57600080fd5b506101bd610219366004611250565b610614565b34801561022a57600080fd5b5061012e6102393660046111f1565b61062f565b34801561024a57600080fd5b506101856102593660046111f1565b61064e565b34801561026a57600080fd5b506101586106c5565b34801561027f57600080fd5b506101d061028e36600461128c565b610753565b34801561029f57600080fd5b506101586107da565b6101bd6102b63660046111f1565b6107e9565b3480156102c757600080fd5b506101bd6102d63660046112a7565b61082c565b3480156102e757600080fd5b506101bd6102f63660046112f9565b6108f0565b34801561030757600080fd5b506101586103163660046111f1565b610928565b34801561032757600080fd5b506101bd6109f0565b34801561033c57600080fd5b5061012e61034b3660046113d5565b610a7d565b60006001600160e01b031982166380ac58cd60e01b148061038157506001600160e01b03198216635b5e139f60e01b145b8061039c57506301ffc9a760e01b6001600160e01b03198316145b92915050565b6060600080546103b190611408565b80601f01602080910402602001604051908101604052809291908181526020018280546103dd90611408565b801561042a5780601f106103ff5761010080835404028352916020019161042a565b820191906000526020600020905b81548152906001019060200180831161040d57829003601f168201915b5050505050905090565b6000818152600260205260408120546001600160a01b03166104b25760405162461bcd60e51b815260206004820152602c60248201527f4552433732313a20617070726f76656420717565727920666f72206e6f6e657860448201526b34b9ba32b73a103a37b5b2b760a11b60648201526084015b60405180910390fd5b506000908152600460205260409020546001600160a01b031690565b60006104d98261064e565b9050806001600160a01b0316836001600160a01b0316036105465760405162461bcd60e51b815260206004820152602160248201527f4552433732313a20617070726f76616c20746f2063757272656e74206f776e656044820152603960f91b60648201526084016104a9565b336001600160a01b038216148061056257506105628133610a7d565b6105d45760405162461bcd60e51b815260206004820152603860248201527f4552433732313a20617070726f76652063616c6c6572206973206e6f74206f7760448201527f6e6572206e6f7220617070726f76656420666f7220616c6c000000000000000060648201526084016104a9565b6105de8383610aab565b505050565b6105ed3382610b19565b6106095760405162461bcd60e51b81526004016104a990611442565b6105de838383610bf0565b6105de838383604051806020016040528060008152506108f0565b6000818152600260205260408120546001600160a01b0316151561039c565b6000818152600260205260408120546001600160a01b03168061039c5760405162461bcd60e51b815260206004820152602960248201527f4552433732313a206f776e657220717565727920666f72206e6f6e657869737460448201526832b73a103a37b5b2b760b91b60648201526084016104a9565b600680546106d290611408565b80601f01602080910402602001604051908101604052809291908181526020018280546106fe90611408565b801561074b5780601f106107205761010080835404028352916020019161074b565b820191906000526020600020905b81548152906001019060200180831161072e57829003601f168201915b505050505081565b60006001600160a01b0382166107be5760405162461bcd60e51b815260206004820152602a60248201527f4552433732313a2062616c616e636520717565727920666f7220746865207a65604482015269726f206164647265737360b01b60648201526084016104a9565b506001600160a01b031660009081526003602052604090205490565b6060600180546103b190611408565b60005b8181101561082857600780549081906000610806836114a9565b91905055506108153382610d90565b5080610820816114a9565b9150506107ec565b5050565b336001600160a01b038316036108845760405162461bcd60e51b815260206004820152601960248201527f4552433732313a20617070726f766520746f2063616c6c65720000000000000060448201526064016104a9565b3360008181526005602090815260408083206001600160a01b03871680855290835292819020805460ff191686151590811790915590519081529192917f17307eab39ab6107e8899845ad3d59bd9653f200f220920489ca2b5937696c31910160405180910390a35050565b6108fa3383610b19565b6109165760405162461bcd60e51b81526004016104a990611442565b61092284848484610daa565b50505050565b6000818152600260205260409020546060906001600160a01b03166109a35760405162461bcd60e51b815260206004820152602b60248201527f4469616d6f6e644e46543a2055524920717565727920666f72206e6f6e65786960448201526a39ba32b73a103a37b5b2b760a91b60648201526084016104a9565b60006109b0600d846114d8565b6109bb9060016114ec565b905060066109c882610ddd565b6040516020016109d992919061151b565b604051602081830303815290604052915050919050565b604051600090339047908381818185875af1925050503d8060008114610a32576040519150601f19603f3d011682016040523d82523d6000602084013e610a37565b606091505b5050905080610a7a5760405162461bcd60e51b815260206004820152600f60248201526e151c985b9cd9995c8819985a5b1959608a1b60448201526064016104a9565b50565b6001600160a01b03918216600090815260056020908152604080832093909416825291909152205460ff1690565b600081815260046020526040902080546001600160a01b0319166001600160a01b0384169081179091558190610ae08261064e565b6001600160a01b03167f8c5be1e5ebec7d5bd14f71427d1e84f3dd0314c0f7b2291e5b200ac8c7c3b92560405160405180910390a45050565b6000818152600260205260408120546001600160a01b0316610b925760405162461bcd60e51b815260206004820152602c60248201527f4552433732313a206f70657261746f7220717565727920666f72206e6f6e657860448201526b34b9ba32b73a103a37b5b2b760a11b60648201526084016104a9565b6000610b9d8361064e565b9050806001600160a01b0316846001600160a01b03161480610bd85750836001600160a01b0316610bcd84610434565b6001600160a01b0316145b80610be85750610be88185610a7d565b949350505050565b826001600160a01b0316610c038261064e565b6001600160a01b031614610c6b5760405162461bcd60e51b815260206004820152602960248201527f4552433732313a207472616e73666572206f6620746f6b656e2074686174206960448201526839903737ba1037bbb760b91b60648201526084016104a9565b6001600160a01b038216610ccd5760405162461bcd60e51b8152602060048201526024808201527f4552433732313a207472616e7366657220746f20746865207a65726f206164646044820152637265737360e01b60648201526084016104a9565b610cd8600082610aab565b6001600160a01b0383166000908152600360205260408120805460019290610d019084906115d9565b90915550506001600160a01b0382166000908152600360205260408120805460019290610d2f9084906114ec565b909155505060008181526002602052604080822080546001600160a01b0319166001600160a01b0386811691821790925591518493918716917fddf252ad1be2c89b69c2b068fc378daa952ba7f163c4a11628f55a4df523b3ef91a4505050565b610828828260405180602001604052806000815250610ede565b610db5848484610bf0565b610dc184848484610f11565b6109225760405162461bcd60e51b81526004016104a9906115ec565b606081600003610e045750506040805180820190915260018152600360fc1b602082015290565b8160005b8115610e2e5780610e18816114a9565b9150610e279050600a8361163e565b9150610e08565b60008167ffffffffffffffff811115610e4957610e496112e3565b6040519080825280601f01601f191660200182016040528015610e73576020820181803683370190505b5090505b8415610be857610e886001836115d9565b9150610e95600a866114d8565b610ea09060306114ec565b60f81b818381518110610eb557610eb5611652565b60200101906001600160f81b031916908160001a905350610ed7600a8661163e565b9450610e77565b610ee88383611012565b610ef56000848484610f11565b6105de5760405162461bcd60e51b81526004016104a9906115ec565b60006001600160a01b0384163b1561100757604051630a85bd0160e11b81526001600160a01b0385169063150b7a0290610f55903390899088908890600401611668565b6020604051808303816000875af1925050508015610f90575060408051601f3d908101601f19168201909252610f8d918101906116a5565b60015b610fed573d808015610fbe576040519150601f19603f3d011682016040523d82523d6000602084013e610fc3565b606091505b508051600003610fe55760405162461bcd60e51b81526004016104a9906115ec565b805181602001fd5b6001600160e01b031916630a85bd0160e11b149050610be8565b506001949350505050565b6001600160a01b0382166110685760405162461bcd60e51b815260206004820181905260248201527f4552433732313a206d696e7420746f20746865207a65726f206164647265737360448201526064016104a9565b6000818152600260205260409020546001600160a01b0316156110cd5760405162461bcd60e51b815260206004820152601c60248201527f4552433732313a20746f6b656e20616c7265616479206d696e7465640000000060448201526064016104a9565b6001600160a01b03821660009081526003602052604081208054600192906110f69084906114ec565b909155505060008181526002602052604080822080546001600160a01b0319166001600160a01b03861690811790915590518392907fddf252ad1be2c89b69c2b068fc378daa952ba7f163c4a11628f55a4df523b3ef908290a45050565b6001600160e01b031981168114610a7a57600080fd5b60006020828403121561117c57600080fd5b813561118781611154565b9392505050565b60005b838110156111a9578181015183820152602001611191565b50506000910152565b600081518084526111ca81602086016020860161118e565b601f01601f19169290920160200192915050565b60208152600061118760208301846111b2565b60006020828403121561120357600080fd5b5035919050565b80356001600160a01b038116811461122157600080fd5b919050565b6000806040838503121561123957600080fd5b6112428361120a565b946020939093013593505050565b60008060006060848603121561126557600080fd5b61126e8461120a565b925061127c6020850161120a565b9150604084013590509250925092565b60006020828403121561129e57600080fd5b6111878261120a565b600080604083850312156112ba57600080fd5b6112c38361120a565b9150602083013580151581146112d857600080fd5b809150509250929050565b634e487b7160e01b600052604160045260246000fd5b6000806000806080858703121561130f57600080fd5b6113188561120a565b93506113266020860161120a565b925060408501359150606085013567ffffffffffffffff8082111561134a57600080fd5b818701915087601f83011261135e57600080fd5b813581811115611370576113706112e3565b604051601f8201601f19908116603f01168101908382118183101715611398576113986112e3565b816040528281528a60208487010111156113b157600080fd5b82602086016020830137600060208483010152809550505050505092959194509250565b600080604083850312156113e857600080fd5b6113f18361120a565b91506113ff6020840161120a565b90509250929050565b600181811c9082168061141c57607f821691505b60208210810361143c57634e487b7160e01b600052602260045260246000fd5b50919050565b60208082526031908201527f4552433732313a207472616e736665722063616c6c6572206973206e6f74206f6040820152701ddb995c881b9bdc88185c1c1c9bdd9959607a1b606082015260800190565b634e487b7160e01b600052601160045260246000fd5b6000600182016114bb576114bb611493565b5060010190565b634e487b7160e01b600052601260045260246000fd5b6000826114e7576114e76114c2565b500690565b8082018082111561039c5761039c611493565b6000815161151181856020860161118e565b9290920192915050565b600080845481600182811c91508083168061153757607f831692505b6020808410820361155657634e487b7160e01b86526022600452602486fd5b81801561156a576001811461157f576115ac565b60ff19861689528415158502890196506115ac565b60008b81526020902060005b868110156115a45781548b82015290850190830161158b565b505084890196505b5050505050506115d06115bf82866114ff565b642e6a70656760d81b815260050190565b95945050505050565b8181038181111561039c5761039c611493565b60208082526032908201527f4552433732313a207472616e7366657220746f206e6f6e20455243373231526560408201527131b2b4bb32b91034b6b83632b6b2b73a32b960711b606082015260800190565b60008261164d5761164d6114c2565b500490565b634e487b7160e01b600052603260045260246000fd5b6001600160a01b038581168252841660208201526040810183905260806060820181905260009061169b908301846111b2565b9695505050505050565b6000602082840312156116b757600080fd5b81516111878161115456fea264697066735822122018f44f57f72557ddf79673e14b51a4c553fc4fb019263baf073b0232f4e6667364736f6c6343000813003368747470733a2f2f6261667962656962626e6b77663264647577736c667a61346f357568666875626f6b34736f68657a75326b6e703437637674657a6c626e696363692e697066732e6e667473746f726167652e6c696e6b2f",
    "linkReferences": {}
  },
  "methodIdentifiers": {
    "approve(address,uint256)": "095ea7b3",
    "balanceOf(address)": "70a08231",
    "baseURI()": "6c0360eb",
    "exists(uint256)": "4f558e79",
    "getApproved(uint256)": "081812fc",
    "isApprovedForAll(address,address)": "e985e9c5",
    "mint(uint256)": "a0712d68",
    "name()": "06fdde03",
    "ownerOf(uint256)": "6352211e",
    "safeTransferFrom(address,address,uint256)": "42842e0e",
    "safeTransferFrom(address,address,uint256,bytes)": "b88d4fde",
    "setApprovalForAll(address,bool)": "a22cb465",
    "supportsInterface(bytes4)": "01ffc9a7",
    "symbol()": "95d89b41",
    "tokenURI(uint256)": "c87b56dd",
    "totalSupply()": "18160ddd",
    "transferFrom(address,address,uint256)": "23b872dd",
    "withdrawFund()": "e07fa3c1"
  },
  "id": 19
}